{
  "contractName": "BeginnerCoin",
  "abi": [
    {
      "inputs": [],
      "stateMutability": "payable",
      "type": "constructor",
      "payable": true
    },
    {
      "anonymous": false,
      "inputs": [
        {
          "indexed": true,
          "internalType": "address",
          "name": "owner",
          "type": "address"
        },
        {
          "indexed": true,
          "internalType": "address",
          "name": "spender",
          "type": "address"
        },
        {
          "indexed": false,
          "internalType": "uint256",
          "name": "value",
          "type": "uint256"
        }
      ],
      "name": "Approval",
      "type": "event"
    },
    {
      "anonymous": false,
      "inputs": [
        {
          "indexed": true,
          "internalType": "address",
          "name": "from",
          "type": "address"
        },
        {
          "indexed": true,
          "internalType": "address",
          "name": "to",
          "type": "address"
        },
        {
          "indexed": false,
          "internalType": "uint256",
          "name": "value",
          "type": "uint256"
        }
      ],
      "name": "Transfer",
      "type": "event"
    },
    {
      "inputs": [
        {
          "internalType": "address",
          "name": "owner",
          "type": "address"
        },
        {
          "internalType": "address",
          "name": "spender",
          "type": "address"
        }
      ],
      "name": "allowance",
      "outputs": [
        {
          "internalType": "uint256",
          "name": "",
          "type": "uint256"
        }
      ],
      "stateMutability": "view",
      "type": "function",
      "constant": true
    },
    {
      "inputs": [
        {
          "internalType": "address",
          "name": "spender",
          "type": "address"
        },
        {
          "internalType": "uint256",
          "name": "amount",
          "type": "uint256"
        }
      ],
      "name": "approve",
      "outputs": [
        {
          "internalType": "bool",
          "name": "",
          "type": "bool"
        }
      ],
      "stateMutability": "nonpayable",
      "type": "function"
    },
    {
      "inputs": [
        {
          "internalType": "address",
          "name": "account",
          "type": "address"
        }
      ],
      "name": "balanceOf",
      "outputs": [
        {
          "internalType": "uint256",
          "name": "",
          "type": "uint256"
        }
      ],
      "stateMutability": "view",
      "type": "function",
      "constant": true
    },
    {
      "inputs": [],
      "name": "decimals",
      "outputs": [
        {
          "internalType": "uint8",
          "name": "",
          "type": "uint8"
        }
      ],
      "stateMutability": "view",
      "type": "function",
      "constant": true
    },
    {
      "inputs": [
        {
          "internalType": "address",
          "name": "spender",
          "type": "address"
        },
        {
          "internalType": "uint256",
          "name": "subtractedValue",
          "type": "uint256"
        }
      ],
      "name": "decreaseAllowance",
      "outputs": [
        {
          "internalType": "bool",
          "name": "",
          "type": "bool"
        }
      ],
      "stateMutability": "nonpayable",
      "type": "function"
    },
    {
      "inputs": [
        {
          "internalType": "address",
          "name": "spender",
          "type": "address"
        },
        {
          "internalType": "uint256",
          "name": "addedValue",
          "type": "uint256"
        }
      ],
      "name": "increaseAllowance",
      "outputs": [
        {
          "internalType": "bool",
          "name": "",
          "type": "bool"
        }
      ],
      "stateMutability": "nonpayable",
      "type": "function"
    },
    {
      "inputs": [],
      "name": "name",
      "outputs": [
        {
          "internalType": "string",
          "name": "",
          "type": "string"
        }
      ],
      "stateMutability": "view",
      "type": "function",
      "constant": true
    },
    {
      "inputs": [],
      "name": "symbol",
      "outputs": [
        {
          "internalType": "string",
          "name": "",
          "type": "string"
        }
      ],
      "stateMutability": "view",
      "type": "function",
      "constant": true
    },
    {
      "inputs": [],
      "name": "totalSupply",
      "outputs": [
        {
          "internalType": "uint256",
          "name": "",
          "type": "uint256"
        }
      ],
      "stateMutability": "view",
      "type": "function",
      "constant": true
    },
    {
      "inputs": [
        {
          "internalType": "address",
          "name": "to",
          "type": "address"
        },
        {
          "internalType": "uint256",
          "name": "amount",
          "type": "uint256"
        }
      ],
      "name": "transfer",
      "outputs": [
        {
          "internalType": "bool",
          "name": "",
          "type": "bool"
        }
      ],
      "stateMutability": "nonpayable",
      "type": "function"
    },
    {
      "inputs": [
        {
          "internalType": "address",
          "name": "from",
          "type": "address"
        },
        {
          "internalType": "address",
          "name": "to",
          "type": "address"
        },
        {
          "internalType": "uint256",
          "name": "amount",
          "type": "uint256"
        }
      ],
      "name": "transferFrom",
      "outputs": [
        {
          "internalType": "bool",
          "name": "",
          "type": "bool"
        }
      ],
      "stateMutability": "nonpayable",
      "type": "function"
    },
    {
      "inputs": [
        {
          "internalType": "address",
          "name": "account",
          "type": "address"
        },
        {
          "internalType": "uint256",
          "name": "amount",
          "type": "uint256"
        }
      ],
      "name": "mint",
      "outputs": [],
      "stateMutability": "nonpayable",
      "type": "function"
    }
  ],
  "bytecode": "0x60806040526040518060400160405280600c81526020017f426567696e6e6572436f696e00000000000000000000000000000000000000008152506040518060400160405280600381526020017f42474300000000000000000000000000000000000000000000000000000000008152508160039081620000819190620004c0565b508060049081620000939190620004c0565b505050620000c1620000aa620000c760201b60201c565b69152d02c7e14af6800000620000cf60201b60201c565b620006e4565b600033905090565b600073ffffffffffffffffffffffffffffffffffffffff168273ffffffffffffffffffffffffffffffffffffffff160362000141576040517f08c379a0000000000000000000000000000000000000000000000000000000008152600401620001389062000608565b60405180910390fd5b62000155600083836200023c60201b60201c565b806002600082825462000169919062000659565b92505081905550806000808473ffffffffffffffffffffffffffffffffffffffff1673ffffffffffffffffffffffffffffffffffffffff168152602001908152602001600020600082825401925050819055508173ffffffffffffffffffffffffffffffffffffffff16600073ffffffffffffffffffffffffffffffffffffffff167fddf252ad1be2c89b69c2b068fc378daa952ba7f163c4a11628f55a4df523b3ef836040516200021c9190620006c7565b60405180910390a362000238600083836200024160201b60201c565b5050565b505050565b505050565b600081519050919050565b7f4e487b7100000000000000000000000000000000000000000000000000000000600052604160045260246000fd5b7f4e487b7100000000000000000000000000000000000000000000000000000000600052602260045260246000fd5b60006002820490506001821680620002c857607f821691505b602082108103620002de57620002dd62000280565b5b50919050565b60008190508160005260206000209050919050565b60006020601f8301049050919050565b600082821b905092915050565b600060088302620003487fffffffffffffffffffffffffffffffffffffffffffffffffffffffffffffffff8262000309565b62000354868362000309565b95508019841693508086168417925050509392505050565b6000819050919050565b6000819050919050565b6000620003a16200039b62000395846200036c565b62000376565b6200036c565b9050919050565b6000819050919050565b620003bd8362000380565b620003d5620003cc82620003a8565b84845462000316565b825550505050565b600090565b620003ec620003dd565b620003f9818484620003b2565b505050565b5b81811015620004215762000415600082620003e2565b600181019050620003ff565b5050565b601f82111562000470576200043a81620002e4565b6200044584620002f9565b8101602085101562000455578190505b6200046d6200046485620002f9565b830182620003fe565b50505b505050565b600082821c905092915050565b6000620004956000198460080262000475565b1980831691505092915050565b6000620004b0838362000482565b9150826002028217905092915050565b620004cb8262000246565b67ffffffffffffffff811115620004e757620004e662000251565b5b620004f38254620002af565b6200050082828562000425565b600060209050601f83116001811462000538576000841562000523578287015190505b6200052f8582620004a2565b8655506200059f565b601f1984166200054886620002e4565b60005b8281101562000572578489015182556001820191506020850194506020810190506200054b565b868310156200059257848901516200058e601f89168262000482565b8355505b6001600288020188555050505b505050505050565b600082825260208201905092915050565b7f45524332303a206d696e7420746f20746865207a65726f206164647265737300600082015250565b6000620005f0601f83620005a7565b9150620005fd82620005b8565b602082019050919050565b600060208201905081810360008301526200062381620005e1565b9050919050565b7f4e487b7100000000000000000000000000000000000000000000000000000000600052601160045260246000fd5b600062000666826200036c565b915062000673836200036c565b9250827fffffffffffffffffffffffffffffffffffffffffffffffffffffffffffffffff03821115620006ab57620006aa6200062a565b5b828201905092915050565b620006c1816200036c565b82525050565b6000602082019050620006de6000830184620006b6565b92915050565b61145180620006f46000396000f3fe608060405234801561001057600080fd5b50600436106100b45760003560e01c806340c10f191161007157806340c10f19146101a357806370a08231146101bf57806395d89b41146101ef578063a457c2d71461020d578063a9059cbb1461023d578063dd62ed3e1461026d576100b4565b806306fdde03146100b9578063095ea7b3146100d757806318160ddd1461010757806323b872dd14610125578063313ce567146101555780633950935114610173575b600080fd5b6100c161029d565b6040516100ce9190610ca0565b60405180910390f35b6100f160048036038101906100ec9190610d5b565b61032f565b6040516100fe9190610db6565b60405180910390f35b61010f610352565b60405161011c9190610de0565b60405180910390f35b61013f600480360381019061013a9190610dfb565b61035c565b60405161014c9190610db6565b60405180910390f35b61015d61038b565b60405161016a9190610e6a565b60405180910390f35b61018d60048036038101906101889190610d5b565b610394565b60405161019a9190610db6565b60405180910390f35b6101bd60048036038101906101b89190610d5b565b6103cb565b005b6101d960048036038101906101d49190610e85565b6103d9565b6040516101e69190610de0565b60405180910390f35b6101f7610421565b6040516102049190610ca0565b60405180910390f35b61022760048036038101906102229190610d5b565b6104b3565b6040516102349190610db6565b60405180910390f35b61025760048036038101906102529190610d5b565b61052a565b6040516102649190610db6565b60405180910390f35b61028760048036038101906102829190610eb2565b61054d565b6040516102949190610de0565b60405180910390f35b6060600380546102ac90610f21565b80601f01602080910402602001604051908101604052809291908181526020018280546102d890610f21565b80156103255780601f106102fa57610100808354040283529160200191610325565b820191906000526020600020905b81548152906001019060200180831161030857829003601f168201915b5050505050905090565b60008061033a6105d4565b90506103478185856105dc565b600191505092915050565b6000600254905090565b6000806103676105d4565b90506103748582856107a5565b61037f858585610831565b60019150509392505050565b60006012905090565b60008061039f6105d4565b90506103c08185856103b1858961054d565b6103bb9190610f81565b6105dc565b600191505092915050565b6103d58282610aa7565b5050565b60008060008373ffffffffffffffffffffffffffffffffffffffff1673ffffffffffffffffffffffffffffffffffffffff168152602001908152602001600020549050919050565b60606004805461043090610f21565b80601f016020809104026020016040519081016040528092919081815260200182805461045c90610f21565b80156104a95780601f1061047e576101008083540402835291602001916104a9565b820191906000526020600020905b81548152906001019060200180831161048c57829003601f168201915b5050505050905090565b6000806104be6105d4565b905060006104cc828661054d565b905083811015610511576040517f08c379a000000000000000000000000000000000000000000000000000000000815260040161050890611049565b60405180910390fd5b61051e82868684036105dc565b60019250505092915050565b6000806105356105d4565b9050610542818585610831565b600191505092915050565b6000600160008473ffffffffffffffffffffffffffffffffffffffff1673ffffffffffffffffffffffffffffffffffffffff16815260200190815260200160002060008373ffffffffffffffffffffffffffffffffffffffff1673ffffffffffffffffffffffffffffffffffffffff16815260200190815260200160002054905092915050565b600033905090565b600073ffffffffffffffffffffffffffffffffffffffff168373ffffffffffffffffffffffffffffffffffffffff160361064b576040517f08c379a0000000000000000000000000000000000000000000000000000000008152600401610642906110db565b60405180910390fd5b600073ffffffffffffffffffffffffffffffffffffffff168273ffffffffffffffffffffffffffffffffffffffff16036106ba576040517f08c379a00000000000000000000000000000000000000000000000000000000081526004016106b19061116d565b60405180910390fd5b80600160008573ffffffffffffffffffffffffffffffffffffffff1673ffffffffffffffffffffffffffffffffffffffff16815260200190815260200160002060008473ffffffffffffffffffffffffffffffffffffffff1673ffffffffffffffffffffffffffffffffffffffff168152602001908152602001600020819055508173ffffffffffffffffffffffffffffffffffffffff168373ffffffffffffffffffffffffffffffffffffffff167f8c5be1e5ebec7d5bd14f71427d1e84f3dd0314c0f7b2291e5b200ac8c7c3b925836040516107989190610de0565b60405180910390a3505050565b60006107b1848461054d565b90507fffffffffffffffffffffffffffffffffffffffffffffffffffffffffffffffff811461082b578181101561081d576040517f08c379a0000000000000000000000000000000000000000000000000000000008152600401610814906111d9565b60405180910390fd5b61082a84848484036105dc565b5b50505050565b600073ffffffffffffffffffffffffffffffffffffffff168373ffffffffffffffffffffffffffffffffffffffff16036108a0576040517f08c379a00000000000000000000000000000000000000000000000000000000081526004016108979061126b565b60405180910390fd5b600073ffffffffffffffffffffffffffffffffffffffff168273ffffffffffffffffffffffffffffffffffffffff160361090f576040517f08c379a0000000000000000000000000000000000000000000000000000000008152600401610906906112fd565b60405180910390fd5b61091a838383610bfd565b60008060008573ffffffffffffffffffffffffffffffffffffffff1673ffffffffffffffffffffffffffffffffffffffff168152602001908152602001600020549050818110156109a0576040517f08c379a00000000000000000000000000000000000000000000000000000000081526004016109979061138f565b60405180910390fd5b8181036000808673ffffffffffffffffffffffffffffffffffffffff1673ffffffffffffffffffffffffffffffffffffffff16815260200190815260200160002081905550816000808573ffffffffffffffffffffffffffffffffffffffff1673ffffffffffffffffffffffffffffffffffffffff168152602001908152602001600020600082825401925050819055508273ffffffffffffffffffffffffffffffffffffffff168473ffffffffffffffffffffffffffffffffffffffff167fddf252ad1be2c89b69c2b068fc378daa952ba7f163c4a11628f55a4df523b3ef84604051610a8e9190610de0565b60405180910390a3610aa1848484610c02565b50505050565b600073ffffffffffffffffffffffffffffffffffffffff168273ffffffffffffffffffffffffffffffffffffffff1603610b16576040517f08c379a0000000000000000000000000000000000000000000000000000000008152600401610b0d906113fb565b60405180910390fd5b610b2260008383610bfd565b8060026000828254610b349190610f81565b92505081905550806000808473ffffffffffffffffffffffffffffffffffffffff1673ffffffffffffffffffffffffffffffffffffffff168152602001908152602001600020600082825401925050819055508173ffffffffffffffffffffffffffffffffffffffff16600073ffffffffffffffffffffffffffffffffffffffff167fddf252ad1be2c89b69c2b068fc378daa952ba7f163c4a11628f55a4df523b3ef83604051610be59190610de0565b60405180910390a3610bf960008383610c02565b5050565b505050565b505050565b600081519050919050565b600082825260208201905092915050565b60005b83811015610c41578082015181840152602081019050610c26565b83811115610c50576000848401525b50505050565b6000601f19601f8301169050919050565b6000610c7282610c07565b610c7c8185610c12565b9350610c8c818560208601610c23565b610c9581610c56565b840191505092915050565b60006020820190508181036000830152610cba8184610c67565b905092915050565b600080fd5b600073ffffffffffffffffffffffffffffffffffffffff82169050919050565b6000610cf282610cc7565b9050919050565b610d0281610ce7565b8114610d0d57600080fd5b50565b600081359050610d1f81610cf9565b92915050565b6000819050919050565b610d3881610d25565b8114610d4357600080fd5b50565b600081359050610d5581610d2f565b92915050565b60008060408385031215610d7257610d71610cc2565b5b6000610d8085828601610d10565b9250506020610d9185828601610d46565b9150509250929050565b60008115159050919050565b610db081610d9b565b82525050565b6000602082019050610dcb6000830184610da7565b92915050565b610dda81610d25565b82525050565b6000602082019050610df56000830184610dd1565b92915050565b600080600060608486031215610e1457610e13610cc2565b5b6000610e2286828701610d10565b9350506020610e3386828701610d10565b9250506040610e4486828701610d46565b9150509250925092565b600060ff82169050919050565b610e6481610e4e565b82525050565b6000602082019050610e7f6000830184610e5b565b92915050565b600060208284031215610e9b57610e9a610cc2565b5b6000610ea984828501610d10565b91505092915050565b60008060408385031215610ec957610ec8610cc2565b5b6000610ed785828601610d10565b9250506020610ee885828601610d10565b9150509250929050565b7f4e487b7100000000000000000000000000000000000000000000000000000000600052602260045260246000fd5b60006002820490506001821680610f3957607f821691505b602082108103610f4c57610f4b610ef2565b5b50919050565b7f4e487b7100000000000000000000000000000000000000000000000000000000600052601160045260246000fd5b6000610f8c82610d25565b9150610f9783610d25565b9250827fffffffffffffffffffffffffffffffffffffffffffffffffffffffffffffffff03821115610fcc57610fcb610f52565b5b828201905092915050565b7f45524332303a2064656372656173656420616c6c6f77616e63652062656c6f7760008201527f207a65726f000000000000000000000000000000000000000000000000000000602082015250565b6000611033602583610c12565b915061103e82610fd7565b604082019050919050565b6000602082019050818103600083015261106281611026565b9050919050565b7f45524332303a20617070726f76652066726f6d20746865207a65726f2061646460008201527f7265737300000000000000000000000000000000000000000000000000000000602082015250565b60006110c5602483610c12565b91506110d082611069565b604082019050919050565b600060208201905081810360008301526110f4816110b8565b9050919050565b7f45524332303a20617070726f766520746f20746865207a65726f20616464726560008201527f7373000000000000000000000000000000000000000000000000000000000000602082015250565b6000611157602283610c12565b9150611162826110fb565b604082019050919050565b600060208201905081810360008301526111868161114a565b9050919050565b7f45524332303a20696e73756666696369656e7420616c6c6f77616e6365000000600082015250565b60006111c3601d83610c12565b91506111ce8261118d565b602082019050919050565b600060208201905081810360008301526111f2816111b6565b9050919050565b7f45524332303a207472616e736665722066726f6d20746865207a65726f20616460008201527f6472657373000000000000000000000000000000000000000000000000000000602082015250565b6000611255602583610c12565b9150611260826111f9565b604082019050919050565b6000602082019050818103600083015261128481611248565b9050919050565b7f45524332303a207472616e7366657220746f20746865207a65726f206164647260008201527f6573730000000000000000000000000000000000000000000000000000000000602082015250565b60006112e7602383610c12565b91506112f28261128b565b604082019050919050565b60006020820190508181036000830152611316816112da565b9050919050565b7f45524332303a207472616e7366657220616d6f756e742065786365656473206260008201527f616c616e63650000000000000000000000000000000000000000000000000000602082015250565b6000611379602683610c12565b91506113848261131d565b604082019050919050565b600060208201905081810360008301526113a88161136c565b9050919050565b7f45524332303a206d696e7420746f20746865207a65726f206164647265737300600082015250565b60006113e5601f83610c12565b91506113f0826113af565b602082019050919050565b60006020820190508181036000830152611414816113d8565b905091905056fea2646970667358221220c0c2d2498ca5638d5e07d65f94dd223ca322e3d2d408c0cda8539eaec7bd4c1a64736f6c634300080f0033",
  "immutableReferences": {},
  "source": "//SPDX-License-Identifier: Apache License 2.0\npragma solidity >=0.8.0 <0.9.0;\n\nimport \"@openzeppelin/contracts/token/ERC20/ERC20.sol\";\n\ncontract BeginnerCoin is ERC20 {\n    constructor() payable ERC20(\"BeginnerCoin\", \"BGC\") {\n        _mint(_msgSender(), 100_000 * 10**18);\n    }\n\n    function mint(address account, uint256 amount) public {\n        _mint(account, amount);\n    }\n}\n",
  "sourcePath": "/Users/tak/Documents/ort/subgraph/subgraph-training/beginner/contract/contracts/BeginnerCoin.sol",
  "compiler": {
    "name": "solc",
    "version": "0.8.15+commit.e14f2714.Emscripten.clang"
  },
  "schemaVersion": "3.4.10",
  "updatedAt": "2023-01-16T04:20:31.855Z",
  "networkType": "ethereum",
  "devdoc": {
    "kind": "dev",
    "methods": {
      "allowance(address,address)": {
        "details": "See {IERC20-allowance}."
      },
      "approve(address,uint256)": {
        "details": "See {IERC20-approve}. NOTE: If `amount` is the maximum `uint256`, the allowance is not updated on `transferFrom`. This is semantically equivalent to an infinite approval. Requirements: - `spender` cannot be the zero address."
      },
      "balanceOf(address)": {
        "details": "See {IERC20-balanceOf}."
      },
      "decimals()": {
        "details": "Returns the number of decimals used to get its user representation. For example, if `decimals` equals `2`, a balance of `505` tokens should be displayed to a user as `5.05` (`505 / 10 ** 2`). Tokens usually opt for a value of 18, imitating the relationship between Ether and Wei. This is the value {ERC20} uses, unless this function is overridden; NOTE: This information is only used for _display_ purposes: it in no way affects any of the arithmetic of the contract, including {IERC20-balanceOf} and {IERC20-transfer}."
      },
      "decreaseAllowance(address,uint256)": {
        "details": "Atomically decreases the allowance granted to `spender` by the caller. This is an alternative to {approve} that can be used as a mitigation for problems described in {IERC20-approve}. Emits an {Approval} event indicating the updated allowance. Requirements: - `spender` cannot be the zero address. - `spender` must have allowance for the caller of at least `subtractedValue`."
      },
      "increaseAllowance(address,uint256)": {
        "details": "Atomically increases the allowance granted to `spender` by the caller. This is an alternative to {approve} that can be used as a mitigation for problems described in {IERC20-approve}. Emits an {Approval} event indicating the updated allowance. Requirements: - `spender` cannot be the zero address."
      },
      "name()": {
        "details": "Returns the name of the token."
      },
      "symbol()": {
        "details": "Returns the symbol of the token, usually a shorter version of the name."
      },
      "totalSupply()": {
        "details": "See {IERC20-totalSupply}."
      },
      "transfer(address,uint256)": {
        "details": "See {IERC20-transfer}. Requirements: - `to` cannot be the zero address. - the caller must have a balance of at least `amount`."
      },
      "transferFrom(address,address,uint256)": {
        "details": "See {IERC20-transferFrom}. Emits an {Approval} event indicating the updated allowance. This is not required by the EIP. See the note at the beginning of {ERC20}. NOTE: Does not update the allowance if the current allowance is the maximum `uint256`. Requirements: - `from` and `to` cannot be the zero address. - `from` must have a balance of at least `amount`. - the caller must have allowance for ``from``'s tokens of at least `amount`."
      }
    },
    "version": 1
  },
  "userdoc": {
    "kind": "user",
    "methods": {},
    "version": 1
  }
}